:0200000470008A
:10000000464346420004015600000000010303007D
:1000100000000000000000000000000000000000E0
:1000200000000000000000000000000000000000D0
:1000300000000000000000000000000000000000C0
:100040001000000001040800000000000000000093
:100050000000400000000000000000000000000060
:100060000000000000000000000000000000000090
:100070000000000000000000000000000000000080
:10008000EB04180A063204260000000000000000FD
:10009000050404240000000000000000000000002F
:1000A0000000000000000000000000000000000050
:1000B0000604000000000000000000000000000036
:1000C0000000000000000000000000000000000030
:1000D00020041808000000000000000000000000DC
:1000E0000000000000000000000000000000000010
:1000F0000000000000000000000000000000000000
:10010000D8041808000000000000000000000000F3
:100110000204180804200000000000000000000095
:1001200000000000000000000000000000000000CF
:10013000600400000000000000000000000000005B
:1001400000000000000000000000000000000000AF
:10015000000000000000000000000000000000009F
:10016000000000000000000000000000000000008F
:10017000000000000000000000000000000000007F
:10018000000000000000000000000000000000006F
:10019000000000000000000000000000000000005F
:1001A000000000000000000000000000000000004F
:1001B000000000000000000000000000000000003F
:1001C000000100000010000001000000000000001D
:1001D000000001000000000000000000000000001E
:1001E000000000000000000000000000000000000F
:1001F00000000000000000000000000000000000FF
:1002000000000000000000000000000000000000EE
:1002100000000000000000000000000000000000DE
:10100000D10020410020007000000000301000706E
:1010100020100070001000700000000000000000B0
:10102000000000700000400000000000FFFFFFFF14
:10103000D2041041CC038C04400FC068FFFFFFFFB7
:10104000400FC06CFFFFFFFF400FC070FFFFFFFFAE
:10105000400FC074FFFFFFFF400FC078FFFFFFFF8E
:10106000400FC07CFFFFFFFF400FC080FFFFFFFF6E
:10107000400D803000002001400D8100101D101B2C
:10108000400FC01400010D40401F801400000000FC
:10109000401F801800000000401F801C000000005E
:1010A000401F802000000000401F8024000000003E
:1010B000401F802800000000401F802C000000001E
:1010C000401F803000000000401F803400000000FE
:1010D000401F803800000000401F803C00000000DE
:1010E000401F804000000000401F804400000000BE
:1010F000401F804800000000401F804C000000009E
:10110000401F805000000000401F8054000000007D
:10111000401F805800000000401F805C000000005D
:10112000401F806000000000401F8064000000003D
:10113000401F806800000000401F806C000000001D
:10114000401F807000000000401F807400000000FD
:10115000401F807800000000401F807C00000000DD
:10116000401F808000000000401F808400000000BD
:10117000401F808800000000401F808C000000009D
:10118000401F809000000000401F8094000000007D
:10119000401F809800000000401F809C000000005D
:1011A000401F80A000000000401F80A4000000003D
:1011B000401F80A800000000401F80AC000000001D
:1011C000401F80B000000010401F8204000110F991
:1011D000401F8208000110F9401F820C000110F925
:1011E000401F8210000110F9401F8214000110F905
:1011F000401F8218000110F9401F821C000110F9E5
:10120000401F8220000110F9401F8224000110F9C4
:10121000401F8228000110F9401F822C000110F9A4
:10122000401F8230000110F9401F8234000110F984
:10123000401F8238000110F9401F823C000110F964
:10124000401F8240000110F9401F8244000110F944
:10125000401F8248000110F9401F824C000110F924
:10126000401F8250000110F9401F8254000110F904
:10127000401F8258000110F9401F825C000110F9E4
:10128000401F8260000110F9401F8264000110F9C4
:10129000401F8268000110F9401F826C000110F9A4
:1012A000401F8270000110F9401F8274000110F984
:1012B000401F8278000110F9401F827C000110F964
:1012C000401F8280000110F9401F8284000110F944
:1012D000401F8288000110F9401F828C000110F924
:1012E000401F8290000110F9401F8294000110F904
:1012F000401F8298000110F9401F829C000110F9E4
:10130000401F82A0000110F9402F000010000004CF
:10131000402F000800000081402F000C00000081D9
:10132000402F00108000001B402F00148200001B83
:10133000402F00188400001B402F001C8600001B5B
:10134000402F002090000021402F0024A000001911
:10135000402F0028A8000017402F002CA900001BD8
:10136000402F003000000021402F0004000079A829
:10137000402F004000000F31402F0044006529221B
:10138000402F004800010920402F004C50210A083E
:10139000402F008000000021402F008400888888B2
:1013A000402F009400000002402F00980000000031
:1013B000402F009080000000402F009CA55A000F95
:1013C000CF000C1C402F003C00000001CC00140496
:1013D000402F009080000000402F009CA55A000C78
:1013E000CF000C1C402F003C00000001CC00140476
:1013F000402F009080000000402F009CA55A000C58
:10140000CF000C1C402F003C00000001CC001C044D
:10141000402F00A000000033402F0090800000000B
:10142000402F009CA55A000ACF000C1C402F003C06
:1014300000000001CC000C04402F004C50210A0990
:10144000000000000000000000000000000000009C
:10145000000000000000000000000000000000008C
:10146000000000000000000000000000000000007C
:10147000000000000000000000000000000000006C
:102000002450012015240070F1A60080E104008016
:10201000E1040080591E008089C800800000000093
:10202000000000000000000000000000A1BB0080D4
:10203000E1670080000000002F04008031BE0080B6
:1020400095240070992400709D240070A1240070D4
:10205000A5240070A9240070AD240070B124007084
:10206000B5240070B9240070BD240070C124007034
:10207000C5240070C9240070CD240070D1240070E4
:10208000D52400707D2400707D2400707D240070B4
:10209000D9240070DD240070E1240070E524007074
:1020A000E9240070ED240070F1240070F524007024
:1020B000F9240070FD2400700125007005250070D2
:1020C000092500700D250070112500701525007080
:1020D000192500701D2500707D2400707D2400707E
:1020E0007D2400707D2400707D240070C93600803E
:1020F0007D2400707D2400707D2400707D2400709C
:102100007D2400707D2400707D2400707D2400708B
:102110007D2400707D2400707D2400707D2400707B
:102120002125007025250070292500702D250070BF
:10213000312500707D2400707D2400707D240070A6
:102140007D2400707D2400707D2400707D2400704B
:102150007D2400707D2400707D2400707D2400703B
:102160007D2400707D2400707D2400707D2400702B
:102170007D2400707D2400707D2400707D2400701B
:10218000C16D0080F16D0080216E0080696E00805D
:10219000A96E00807D2400707D2400707D24007075
:1021A0007D2400707D240070352500703925007075
:1021B0007D2400707D2400707D2400707D240070DB
:1021C0007D2400707D2400707D2400707D240070CB
:1021D0007D2400707D2400707D2400707D240070BB
:1021E0007D2400707D2400707D2400703D250070EA
:1021F000412500707D240070452500704925007040
:1022000021C8008009C800804D250070512500704C
:102210007D2400707D2400707D2400707D2400707A
:102220007D2400707D24007039A700807D2400701B
:102230007D2400707D2400707D2400707D2400705A
:102240007D2400707D2400707D2400707D2400704A
:102250007D2400707D2400707D2400707D2400703A
:102260007D2400707D2400707D2400707D2400702A
:102270007D2400707D2400707D2400707D2400701A
:102280007D2400707D2400707D2400707D2400700A
:102290007D2400707D2400707D2400707D240070FA
:1022A00055250070592500705D2500707D24007053
:1022B000612500707D2400707D2400707D240070F5
:1022C0007D2400707D2400707D2400707D240070CA
:1022D0007D2400707D2400707D2400707D240070BA
:1022E0007D2400707D2400707D2400707D240070AA
:1022F0007D2400707D2400707D2400707D2400709A
:102300007D2400707D2400707D2400707D24007089
:102310007D2400707D2400707D2400707D24007079
:102320007D2400707D2400707D2400707D24007069
:102330007D2400707D2400707D2400707D24007059
:102340007D2400707D2400707D2400707D24007049
:102350007D2400707D2400707D2400707D24007039
:102360007D2400707D2400707D2400707D24007029
:102370007D2400707D2400707D2400707D24007019
:102380007D2400707D2400707D2400707D24007009
:102390007D2400707D2400707D2400707D240070F9
:1023A0007D2400707D2400707D2400707D240070E9
:1023B0007D2400707D2400707D2400707D240070D9
:1023C0007D2400707D2400707D2400707D240070C9
:1023D0007D2400707D2400707D2400707D240070B9
:1023E0007D2400707D2400707D2400707D240070A9
:1023F0007D2400707D2400707D240070FFFFFFFFAE
:10240000DFF80CD000F020F9004800477912008076
:10241000245001201148124901601248016841F01E
:102420000401016010480168C0F200014FF007028A
:102430004FF00A034FEA02424FEA035342EA030114
:10244000016072B609480A4901600A6882F3088887
:102450000848804762B608480047000044C00A4068
:10246000AFAAAAAA40C00A4038C00A4008ED00E05E
:10247000002000707926007001240070FFF7FEBF75
:102480003848004738480047384800473848004730
:102490003848004738480047384800473848004720
:1024A0003848004738480047384800473848004710
:1024B0003848004738480047384800473848004700
:1024C00038480047384800473848004738480047F0
:1024D00038480047384800473848004738480047E0
:1024E00038480047384800473848004738480047D0
:1024F00038480047384800473848004738480047C0
:1025000038480047384800473848004738480047AF
:10251000384800473848004738480047384800479F
:10252000384800473848004738480047384800478F
:10253000384800473848004738480047384800477F
:10254000384800473848004738480047384800476F
:10255000384800473848004738480047384800475F
:1025600038480047F1A60080E1040080A1BB00804C
:102570002F04008031BE0080F15200805955008048
:10258000B15500800956008061560080B956008020
:102590001157008069570080C1570080195800808A
:1025A00049530080A1530080F953008051540080AA
:1025B000A9540080015500807D240070718B00803B
:1025C000998B0080C18B0080E98B0080118C00808A
:1025D000398C0080618C0080898C0080A978008013
:1025E000B9780080D1780080E97800808179008016
:1025F000C9790080117A0080597A0080611E0080BC
:10260000B11E0080E1B8008079B9008011BA008065
:1026100061BA008021BB0080396D0080416D00806F
:102620007D2400707D24007039C8008061C800805E
:10263000D16B0080996A0080816A0080696A00809D
:10264000011F0080496D00801CB5094800900948B1
:1026500001900546009C06E0E06840F0010394E824
:10266000070098471034AC42F6D3FFF7CDFE0000C8
:10267000402800707028007080B584B04EF68851F4
:10268000CEF20001086840F4700008604FF48060EA
:1026900001904FF00040039042F20000C7F20000AA
:1026A0000290019880080090FFE70098411E009179
:1026B00040B1FFE70298009A50F82200039941F8D0
:1026C0002200F2E703984EF60851CEF200010860AE
:1026D00048F20801C4F20B01088820F001000880CC
:1026E0000821C4F20D01088820F00100088048F29A
:1026F0000000C4F20B0000884007002809D5FFE75E
:1027000048F20001C4F20B01088820F004000880A0
:10271000FFE70020C4F20D0000884007002808D51C
:10272000FFE70021C4F20D01088820F004000880B2
:10273000FFE74CF20000C4F20B00006880040028A0
:102740000AD5FFE74CF20401C4F20B014CF2205011
:10275000CDF6281008600AE04CF20401C4F20B0127
:102760004CF2205008604DF628100860FFE74CF24C
:102770000801C4F20B014FF6FF7008604CF2000133
:10278000C4F20B01086840F0200020F080000860CF
:102790004EF21000CEF200000068C00748B1FFE71B
:1027A0004EF21001CEF20001086820F0010008602E
:1027B000FFE74EF61450CEF20000006800F400303F
:1027C000B0F5003F26D0FFE74EF61450CEF20000E1
:1027D00000688003002801D5FFE71AE0BFF34F8FA0
:1027E000BFF36F8F4EF65071CEF2000100200860EB
:1027F000BFF34F8FBFF36F8F4EF61451CEF200012F
:10280000086840F400300860BFF34F8FBFF36F8F4C
:10281000FFE7FFE700F004F804B080BD000000000F
:10282000704702E008C8121F08C1002AFAD1704799
:102830007047002001E001C1121F002AFBD1704740
:102840007028007000040080BC99020022280070EB
:1028500040C20270000000204003000022120080ED
:1028600040C4027040030020E428010032280070B8
:10287000EFF3108072B6704780F310887047424AB9
:102880001368012B04D04FF0010313603F4A10601E
:102890003F4A11603F484FF0805101607047EFF3AD
:1028A000108272B63848016851B34FF000010160E0
:1028B0003648016891B1EFF309811EF0100F08BF8F
:1028C00021ED108B21E9F00F4FF000041EF0100FE6
:1028D00008BF012441F8044D006801602C490968D3
:1028E000096808C9B1E8F00F002B18BFB1EC108BD4
:1028F00081F309884EF0100E002B18BF2EF0100E39
:1029000082F310884EF0040E704721490860EFF3FF
:10291000148222F0040282F314881C494FF0000054
:10292000086019494FF0010008601B481B49D0F8A6
:10293000002041EA0201016016484FF08051016019
:1029400017480068006880F3088861B662B670476F
:102950001EF0040F0CBFEFF30880EFF3098020E9AD
:10296000F00F40F804ED40F804ED1EF0040F0CBF2A
:1029700080F3088880F3098800B51EF099F85DF8A7
:1029800004EB4EF0040E70472C2A0120682701202A
:102990007427012004ED00E020ED00E00000FFFFBF
:1029A00008ED00E02DE9F05F0546002092469B46C9
:1029B00088460646814640241BE028464146474655
:1029C000224600F0F1F853465A46C01A914110D3FE
:1029D00011461846224600F0D8F82D1A67EB010878
:1029E0004F4622460120002100F0CFF817EB0009E6
:1029F0004E41201EA4F10104DFDC484631462A4640
:102A00004346BDE8F09F2DE9F0410024061B254612
:102A100071F1000605DA01240027D0EB070067EB0F
:102A20000101161E73F1000605DA0027D2EB07023A
:102A3000012567EB0303FFF7B5FF86460E461746F1
:102A40009C46AC4204D00025D0EB050E65EB010698
:102A500024B10020D2EB000760EB030C7046314636
:102A60003A466346BDE8F081002800DA40427047EC
:102A700010B540EA01040346A40703D009E010C9D9
:102A8000121F10C3042AFAD203E011F8014B03F815
:102A9000014B521EF9D210BDD2B201E000F8012B59
:102AA000491EFBD270470022F6E710B513460A46CE
:102AB00004461946FFF7F0FF204610BD421E12F8EB
:102AC000013F002BFBD111F8013B02F8013B002B29
:102AD000F9D1704710B5044604E00B7800F8013BCB
:102AE00003B1491C521EF8D2204610BD421C10F8FA
:102AF000011B0029FBD1801A704730B50446002025
:102B0000034600E05B1C934203D2E05CCD5C401BBB
:102B1000F8D030BD034611F8012B00F8012B002A34
:102B2000F9D11846704730B505460020034600E04D
:102B30005B1C934205D2EC5CC85C201A01D1002CCE
:102B4000F6D130BD70B5064623F036FC0468054664
:102B50000A220021304600F08BF82C6070BD30B5A1
:102B60000B46014600202022012409E021FA02F54B
:102B70009D4205D303FA02F5491B04FA02F52844E5
:102B8000151EA2F10102F1DC30BD202A04DB203A3F
:102B900000FA02F1002070479140C2F1200320FAB0
:102BA00003F3194390407047202A04DB203A21FAAE
:102BB00002F00021704721FA02F3D040C2F1200256
:102BC00091400843194670470FB40B0010B58AB006
:102BD0000FA900910E994FF00004234ACC60214CBC
:102BE000CDE9064200D004236FF00042CDE9013266
:102BF0001E4A089202466B46002000F0F5FA0AB021
:102C000010BC5DF814FBF0B585B007464FF0FF30FF
:102C10000091CDE901011E46002015460C460490A6
:102C20003B466A46314604A8FFF7CEFF04990346A7
:102C3000601825B109B1024600E022462A60002949
:102C40000ED0002B02DD0099814209D00094001BB8
:102C5000CDE901043B466A46314604A8FFF7B4FFBC
:102C600005B0F0BDB10F0080CF0F00803D0C00809B
:102C70002DE9F04791460F4680460446002614F899
:102C8000015B2DB100F00EFA0068405DC007F6D17F
:102C90002B2D02D02D2D18D0641E4A4639462046D1
:102CA00000F0DEFB27B13968A14201D1C7F80080EE
:102CB00071054FF002040BD54042002803DD23F0DC
:102CC0007BFB0460A007BDE8F08746F48066E4E77C
:102CD0000028F8DA23F070FB04606FF00040F2E7A0
:102CE0002DE9FE4F804681EA0300C00F0C4600909C
:102CF00021F0004123F00045B8EB0200A94105D2C4
:102D00004046214690461C460B46024623F00040B2
:102D1000104347D0270DC7F30A00C3F30A510290AE
:102D2000401A019040286BDAC3F3130040F4801B73
:102D30000098924620B10023D2EB030A63EB0B0B01
:102D400001985946C0F140025046FFF71EFF064663
:102D50000D4650465946019A00F092F910EB0800D2
:102D60006141002487EA115284EAE7731A4340D094
:102D7000009A62B3019A012A4FEA075215DC001B40
:102D800061EB02014FF0004202EA0752CDE9004236
:102D9000001C41F5801132462B4600F0BFFB03B00A
:102DA000BDE8F08F40462146F9E7001B61EB0201C8
:102DB000001C41F5801300185B412018A2F5001794
:102DC00047EB030140EAD570B6196D4111E06D087B
:102DD0004FEA360645EAC0754FEA0752001B61EB21
:102DE0000201001C41F5801149084FEA300000192A
:102DF000514132462B4603B0BDE8F04F00F07FBB97
:102E00000098012240000023D0EB020263EBE07344
:102E1000009821464FEAE074B8EB000061EB040132
:102E2000E9E783F000435BE781F0004158E72DE9D3
:102E3000FE4F81EA030404F0004421F000410094B5
:102E40004FF0000B23F0004350EA01045ED052EA39
:102E500003045BD0C3F30A54C1F30A552C44A4F213
:102E6000F3340194A0FB0254C1F3130141F4801127
:102E7000C3F3130343F4801301FB024400FB034E2E
:102E8000840A970A44EA815447EA8357A4FB0768F7
:102E900002958D0A05FB07854FEA932C04FB0C5421
:102EA0002705029D4FEA065847EA1637B5EB080595
:102EB0006EEB070C870E920E47EA811742EA8312E7
:102EC000A7FB0201B6EB0B0164EB00042B0D43EAF8
:102ED0000C335E1844EB1C50DA465146E7FB020106
:102EE000C5F313044FEA0B3343EA14534FEA043299
:102EF000019C43EA0603A4F10C040294009CCDE972
:102F000000B400F00BFB03B0BDE8F08F00200146D9
:102F1000F9E72DE9F04D81EA030404F0004B21F0BC
:102F2000004514464FF0000A23F0004150EA050224
:102F300020D054EA01021DD0C5F30A570246C5F35A
:102F40001303C1F31300C1F30A5640F4801543F490
:102F50008013A7EB0608101BD64608F2FD3873EB6A
:102F6000050002D308F1010801E092185B41B8F1B5
:102F7000000F03DA00200146BDE8F08D00204FF479
:102F80008011064684460EE0171B73EB050705D338
:102F9000121B63EB050306434CEA010C49084FEA98
:102FA000300092185B4150EA0107EDD152EA03006C
:102FB00012D082EA040083EA0501084305D0101B01
:102FC000AB4106D20122002306E000224FF000436D
:102FD00002E06FF0010253101AEB06004CEB0851AF
:102FE00010EB0A0041EB0B01BDE8F04D00F087BA91
:102FF00070B521F0004303430CD0C1F30A550024FF
:10300000D5EB040564EB0403D617AD1AB34102DB1C
:103010000020014670BD201841EB025170BDC1F384
:103020000A52C1F3130140F2FF3341F480119A4276
:1030300002DA00200146704740F233439A42A2F27E
:10304000334202DC5242FFF7AFBDFFF79EBD0000E6
:1030500030B5041E71F1000404DB4FF0004440421F
:1030600064EB0101141E73F1000405DB1C464FF0F4
:103070000043524263EB0403994208BF904230BDC3
:10308000202A06DBCB17203A41FA02F043EAE0732C
:1030900006E041FA02F3D040C2F120029140084319
:1030A00019467047004870470C55028010B5044619
:1030B000FFF7F8FF0068005D00F0010010BD0000A0
:1030C0002DE9FF4F087883B09946FF2805D0491CA9
:1030D0002D2804D00024002008E000200BE001246B
:1030E000F9E700EB800003EB4000491C0B78FF2B55
:1030F000F7D104B1404200230293147819461D46CB
:103100002D2C01D02B2C04D1521C2D2C13D000249B
:103110000294AA461478FF2C0FD00A25A3FB057849
:1031200001FB05814FF0000C03FB0C11521CE3194D
:103130004AEB0101EEE70124EAE7814453EA01008A
:1031400002D019F5C87F06DA03980021C0E9001102
:1031500007B0BDE8F08F0025AE4E2F46DFF8B882ED
:10316000184600F037FACDE90001B9F1000002DAA3
:10317000C9F1000400E004460023A74A1AEB030B40
:1031800042EB045A12E0E00707D02A46334638469D
:103190004146FFF74CFE074688462A46334610460E
:1031A0001946FFF744FE05460E466410002CEAD18E
:1031B000DDE90001B9F1000F5A46534606DAFFF780
:1031C000A8FE3A464346FFF7A4FE05E0FFF72FFEB0
:1031D0003A464346FFF72BFE029A0AB181F00041BE
:1031E000039AC2E90001B3E72DE9FF4F1F468DB0F6
:1031F000D7E901464FF0FF382E2045464FF0000931
:103200000B90B9696D1C0E988847396A82468847C9
:103210000028F6D1BAF1FF3F0AD024F4D064002E82
:1032200011DDBAF12B0F08D0BAF12D0F0BD102E04E
:10323000404611B08DE744F48064B9696D1C0E9866
:1032400088478246761E6946600501D52D2000E03C
:103250002B208DF8000001F1010B0DF1200809E091
:10326000B9696D1C0E98884782460F9844F4007423
:10327000761E0560002E02DDBAF1300FF0D00B99FA
:103280008A453ED144F0800406E00F99681CA9F1FC
:10329000010944F400740860B9696D1C761E0E982B
:1032A000884782463028F0D02BE00B998A4505D11B
:1032B000200603D444F08004761E18E0504623F024
:1032C000E1FE08B30DF11302761EAAF1300044F4BA
:1032D0000074934506D20BF8010B200607D5A9F11F
:1032E000010003E0200602D409F101008146A00597
:1032F00002D50F99681C0860B9696D1C0E98884743
:103300008246002ED1DC53E0002E51DDBAF1650F6C
:1033100002D0BAF1450F4BD1A00549D5B9696D1C52
:1033200024F44074761E0E9888478246002E0CDDE9
:103330002B2804D0BAF12D0F07D144F48074B96959
:103340006D1C0E9888478246761EE00501D52D211A
:1033500000E02B2108F8011BCDF82C8021E00DF1B5
:103360002901761E44F4007488450CD2AAF130007D
:1033700010F0FF0088F8000002D10B99884509D9A8
:1033800008F1010806E0E00501D5244801E042F219
:103390000F708146B9696D1C0E98884782460F9858
:1033A0000560002E04DD504623F06CFE0028D6D1C7
:1033B000F9690E988847FF208BF8000088F8000014
:1033C0000020069007904B466A4608A906A8FFF71A
:1033D00077FEA00502D46FF001002AE714F0240F55
:1033E0000AD0E00714D1DDE906123868031D3B60FE
:1033F0000068C0E900120BE0DDE9060100F0F6F814
:103400000146E00704D13868021D3A600068016097
:1034100028460EE7000014400000F03FF1D8FFFFFF
:10342000426842B1016811F8013B23B1521EC0E964
:103430000012184670470121C160881E704742681B
:103440005AB1C368016843B983688B4205D0491EED
:10345000521CC0E90012002070474FF0FF30704747
:103460002DE9F05F82460078002715468B460AF169
:103470000104B946302801D09DB113E014F8010BC6
:103480000127782803D0582801D045B10AE00DB1B2
:10349000102D07D10027102514F8010B02E0082594
:1034A00000E00A250026B0460EE005FB080005FBFB
:1034B00006F1012701EB10461FFA80F8B6F5803FB0
:1034C00000D3B94614F8010B294600F075F800281E
:1034D000EBDABBF1000F05D00FB1641E00E05446DB
:1034E000CBF80040B9F1000F06D022F065FF0221B1
:1034F0000160C81EBDE8F09F48EA0640FAE710B533
:10350000141E73F1000408DA401C41F10001921806
:103510005B411A4301D120F0010010BD2DE9F04DAF
:1035200092469B4611B1B1FA81F202E0B0FA80F204
:1035300020329046FFF729FB04460F4640EA0A0076
:1035400041EA0B0153465A46084313D0114653EA49
:10355000010019D0C8F140025046FFF725FB05468F
:103560000E46504659464246FFF70FFB084305D02A
:10357000012004E020463946BDE8F08D00200543D7
:1035800046EAE0762C4337430A986305E40AA0EB49
:1035900008000022FD0A44EA47540A3002D5002000
:1035A0000146E9E7010510196941DDE908450019FF
:1035B0006941BDE8F04DA2E73A2800D2303820F04A
:1035C0002002412A01D3A2F13700884201D34FF0F3
:1035D000FF3070470EB540F2334202920022CDE92F
:1035E00000221346FFF79AFF03B000BD01F000432D
:1035F00030B421F0004150EA010206D00A0DA2F5D4
:103600006072C1F31301002A02DC30BC0020704755
:10361000440F44EAC104C100E01830BC00EBC250C2
:10362000AFF300800029A8BF7047401C490008BFC5
:1036300020F00100704710B4B0FA80FC00FA0CF0E2
:1036400050EA010404BF10BC704749B1CCF120041A
:1036500021FA04F411FA0CF118BF012121430843A7
:10366000A3EB0C01CB1D4FEA00614FEA102042BFD3
:10367000002010BC704700EBC35010440029A4BFC9
:1036800010BC7047401C490008BF20F0010010BC6E
:10369000704770B58C1810F8015B15F0070301D165
:1036A00010F8013B2A1106D110F8012B03E010F8A5
:1036B000016B01F8016B5B1EF9D12B0705D40023C8
:1036C000521E0DD401F8013BFAE710F8013BCB1A6A
:1036D000921C03E013F8015B01F8015B521EF9D55F
:1036E000A142D8D3002070BD80B520F05DFB002042
:1036F00080BD000000000000BFF35F8F4EF6245134
:10370000CEF20001086820F4803008604EF6945133
:10371000CEF20001086820F0010008607047000048
:1037200081B00090009840F001004EF69451CEF226
:10373000000108604EF62451CEF20001086840F402
:1037400080300860BFF34F8FBFF36F8F01B07047B9
:1037500080B582B046F29150C8F202001DF074FBB1
:1037600010F0F6FE40F26C51C2F200010020086039
:1037700048608860ADF80600FFE7BDF806006328E2
:1037800040DCFFE710F0B8FE4BF67A70C2F20000A2
:10379000B0F9000000EE100AB8EEC01A40F26C500A
:1037A000C2F2000090ED000A30EE010A80ED000A3E
:1037B0004BF67C71C2F20001B1F9001000EE101A54
:1037C000B8EEC01A90ED010A30EE010A80ED010A50
:1037D0004BF67E71C2F20001B1F9001000EE101A32
:1037E000B8EEC01A90ED020A30EE010A80ED020A2E
:1037F0000A201FF0DDFAFFE7BDF806000130ADF842
:103800000600BAE740F26C50C2F2000090ED000AE8
:103810009FED091A80EE010A80ED000A90ED010A81
:1038200080EE010A80ED010A90ED020A80EE010AA5
:1038300080ED020A02B080BD0000C8420000000016
:1038400010B582B04BF67470C2F20000B0F90000FF
:103850004BF67671C2F20001B1F900104BF67872A6
:10386000C2F20002B2F900204BF67A73C2F20003F2
:10387000B3F900304BF67C7CC2F2000CBCF900C0FE
:103880004BF67E7EC2F2000EBEF90040EE46CEF848
:103890000440CEF800C010F09BFF1FF0A5FC0146CD
:1038A0004BF62060C2F200000160026842F23871FB
:1038B000C2F201010B68D21A00EE102AB8EEC00A5B
:1038C000B7EEC00A9FED221B20EE010BB7EEC00B36
:1038D0004BF69462C2F2000282ED000A00680860B2
:1038E00042F23C70C2F2010090ED050AB7EEC00A48
:1038F00022F082FD9FED181BB4EE410BF1EE10FAA1
:103900001DDDFFE742F23C70C2F2010090ED050AB6
:103910004BF69460C2F2000090ED001A20EE010A0E
:103920009FED0F1A80EE011A40F24030C2F2000003
:1039300090ED010A30EE010A80ED010AFFE740F246
:103940004030C2F2000090ED010A02B010BD00BF8D
:10395000FCA9F1D24D62503F00000040E17A843F63
:1039600035FA8E3C0000000080B58AB04FF400406C
:1039700001F0A2FF48F2C021C4F20D01086840F432
:1039800080300860086820F40030086043F200606E
:10399000C0F26E1001F09CFF002001F021FD01F04B
:1039A00063FD0120099001F09FFF09994CF200028C
:1039B000C4F20F0210687F2363F30700106046F61D
:1039C0001840C8F2000001F00FFF099943F61410E7
:1039D000C1F2004001F008FF0C21C4F208010868A0
:1039E000132262F304000860FFE70020C4F208001D
:1039F000006800F00040B0F1004F01D0FFE7F4E7AD
:103A000045F22060C8F2020001F0B6FC02200390EB
:103A10001E2101F035FD00F0DBFE48F20000C4F28B
:103A20000D0002900D21C0F270010122079201F0F9
:103A300023FF48F27011C4F20D010191086820F4CF
:103A400000400860086820F40000086048F2700137
:103A5000C4F20D01086840F40050086000F0D0FE88
:103A6000019A48F2A001C4F20D01086840F48030C8
:103A70000860106820F040401060086840F4005072
:103A8000086000F0ADFE0298079A0D21C0F2E00137
:103A900001F0F2FE079A48F2E001C4F20D01086855
:103AA00062F301000860086840F40050086008688C
:103AB00020F00C000860086840F480100860086876
:103AC00040F40010086000F093FE0298079A0D2160
:103AD000C0F2200101F0D0FE48F22001C4F20D0135
:103AE000086840F4005008604EF61420C0F2004010
:103AF0000021069101F0A0FD4FF4887000F0B8FE9F
:103B00004FF4847000F0B4FE40F2162000F0B0FED6
:103B10004FF4067000F0ACFE46F61400C8F2000048
:103B20000321059101F088FD07994EF21000C4F2BF
:103B3000000001F081FD059947F21820C8F200004D
:103B400001F052FE069943F61410C1F2004001F054
:103B50004BFE06994FF61430C8F2000001F06CFDE0
:103B6000069946F61840C8F2000001F03DFE4FF4F9
:103B70008A7000F07DFE4FF48B7000F079FE182003
:103B800000F076FE1A2000F073FE4FF4867000F00D
:103B90006FFE07994EF21C00C8F2070001F04CFDC1
:103BA000069942F21C60C8F2000001F01DFE40F2CE
:103BB000026000F05DFE07994EF62430C8F2000066
:103BC00001F03AFD069943F21C00C8F2000001F032
:103BD0000BFE40F2046000F04BFE07994FF2240008
:103BE000C8F2000001F028FD069943F21C10C8F24B
:103BF000000001F0F9FD40F20A6000F039FE06997C
:103C00004FF21C70C8F2000001F016FD059947F64E
:103C10001C50C8F2000001F0E7FD40F2022000F065
:103C200027FE07994EF63C30C8F2000001F004FD73
:103C3000069946F63C10C8F2000001F0D5FD4FF49D
:103C4000807000F015FE4FF4817000F011FE4FF40B
:103C5000827000F00DFE4FF4837000F009FE4FF605
:103C60001820C8F20000042101F0E6FC039946F296
:103C70001840C8F2000001F0B7FD162000F0F8FD72
:103C8000039947F62410C8F2000001F0D5FC03990F
:103C900046F61860C8F2000001F0A6FD40F212508E
:103CA00000F0E6FD05994EF22860C8F2000001F030
:103CB000C3FC07994EF22800C8F2070001F0BCFCD3
:103CC000069946F61C20C8F2000001F08DFD40F276
:103CD000145000F0CDFD05994EF22C60C8F20000A2
:103CE00001F0AAFC07994EF22C00C8F2070001F07F
:103CF000A3FC069946F61C40C8F2000001F074FDD2
:103D000040F2165000F0B4FD05994FF22860C8F259
:103D1000000001F091FC07994FF22800C8F207005B
:103D200001F08AFC069946F61C60C8F2000001F01A
:103D30005BFD40F2062000F09BFD4FF4027000F0A6
:103D400097FD40F20A2000F093FD06994FF23830BB
:103D5000C8F2070001F070FC069943F23820C8F25F
:103D6000000001F041FD0E2000F082FD12200890BD
:103D700000F07EFD40F2067000F07AFD102000F0A9
:103D800077FD142000F074FD4FF4E16000F070FD49
:103D900007994EF22020C8F2070001F04DFC03996C
:103DA00046F62000C8F2000001F01EFD4FF4A360AB
:103DB00000F05EFD1C2000F05BFD0C2000F058FDC3
:103DC0004FF48C7000F054FD40F2023000F050FDD2
:103DD00040F2063000F04CFD40F21A5000F048FD71
:103DE00040F20E6000F044FD06994EF22400C8F245
:103DF000070001F021FC069942F22460C8F200009D
:103E000001F0F2FC40F20A3000F032FD07994EF664
:103E10003840C8F2000001F00FFC05994FF218700D
:103E2000C8F2000001F008FC4EF63870C8F200003D
:103E3000052101F0D9FC40F20E5000F019FD079960
:103E40004FF63010C8F2000001F0F6FB4FF2306080
:103E5000C8F200000721049101F0EEFB059947F23A
:103E60003040C8F2000001F0BFFC40F2025000F008
:103E7000FFFC07994EF63040C8F2000001F0DCFB71
:103E800004994EF63010C8F2000001F0D5FB0599F8
:103E900046F23070C8F2000001F0A6FC4FF440700A
:103EA00000F0E6FC07994EF62810C8F2000001F079
:103EB000C3FB07994FF62810C8F2000001F0BCFBC5
:103EC000059947F22030C8F2000001F08DFC0699F8
:103ED00042F20C00C8F2000001F086FC079B089A31
:103EE00048F26011C4F20D01086820F01F0008605C
:103EF0004CF26001C4F20F01086820F07000086005
:103F0000086863F303000860086820F46000086034
:103F1000086862F314400860086820F48070086044
:103F2000086820F080000860086820F08070086051
:103F300040F29001C2F2000144F20060C2F2C330CC
:103F400008600AB080BD000080B588B04EF61450FD
:103F5000CEF2000000688003002817D5FFE7BFF30A
:103F60004F8FBFF36F8F4EF61451CEF200010868E9
:103F700020F4003008604EF65071CEF200010020AF
:103F80000860BFF34F8FBFF36F8FFFE74EF61450FB
:103F9000CEF200000068C00300283DD5FFE74EF6D2
:103FA0008451CEF2000100200860BFF34F8F4EF61F
:103FB0001451CEF20001086820F480300860BFF38D
:103FC0004F8F4EF68050CEF20000006804900498A7
:103FD000C0F34E300390FFE70498C0F3C90002908D
:103FE000FFE703990298800761F34D104EF6747154
:103FF000CEF2000108600298411E02910028F0D123
:10400000FFE70398411E03910028E5D1FFE7BFF3C6
:104010004F8FBFF36F8FFFE7FFF76EFB4EF69C529B
:10402000CEF2000200921020CCF2000010604EF69A
:10403000A051CEF2000101913920C0F21030086089
:104040001120C8F2000010603B20C0F21030086060
:104050001223C7F2000313602B23C0F203630B602B
:10406000132313600860142010601F20C0F2033077
:1040700008601520C2F2000010602520C0F2033055
:1040800008601623C2F22003136008601720C2F2F2
:10409000280010600920C0F2033008601820C8F220
:1040A000000010603120C0F2033008601920C8F20F
:1040B000E01010602920C0F2083008600420FFF7EB
:1040C0002FFB4EF61450CEF200000068C00300280B
:1040D00001D5FFE73CE04EF68451CEF2000100200E
:1040E0000860BFF34F8F4EF68050CEF2000000689C
:1040F00007900798C0F34E300690FFE70798C0F38B
:10410000C9000590FFE706990598800761F34D10F7
:104110004EF66071CEF2000108600598411E0591CF
:104120000028F0D1FFE70698411E06910028E5D14E
:10413000FFE7BFF34F8F4EF61451CEF2000108682F
:1041400040F480300860BFF34F8FBFF36F8FFFE7FD
:104150004EF61450CEF2000000688003002801D50E
:10416000FFE71AE0BFF34F8FBFF36F8F4EF650712A
:10417000CEF2000100200860BFF34F8FBFF36F8FB6
:104180004EF61451CEF20001086840F40030086089
:10419000BFF34F8FBFF36F8FFFE708B080BD000004
:1041A00080B584B042F22460C8F2000000F0C4FC84
:1041B000D0B9FFE70D20C0F2100000F0D5FD4AF69F
:1041C000AB21CAF6AA21A0FB0110800802904EF292
:1041D0002400C8F2070000F0D3FB01460298013129
:1041E000B0FBF1F003900FE000F0D6FC01904EF22E
:1041F0002400C8F2070000F0C3FB0146019801311A
:10420000B0FBF1F00390FFE7039804B080BD00001D
:1042100080B5FFF7A9FB80BD80B500F009F880BD2F
:1042200080B582B0FFF7BCFF019002B080BD0000F6
:1042300080B58AB040F2024000F086FB6946002358
:1042400008934B6048F2DC20C4F21F000390086022
:1042500048F2EC00C4F21F000490022107911A46B4
:1042600005F03EFD0799089B6A46536048F2E0203E
:10427000C4F21F000590106048F2F000C4F21F0065
:1042800006901A4605F02CFD039A04980799089B9E
:10429000EC4641F2B00ECDF824E0CCF804E0CCF8C6
:1042A00000201A4605F0D0FC059A06980799089B4D
:1042B000DDF824E0EC46CCF804E0CCF800201A4607
:1042C00005F0C2FC0AB080BDFFE7FEE70000000079
:1042D00080B542F62030C2F20100406808B1FFE725
:1042E0000BE047F6D740C8F2020047F62851C8F263
:1042F000020141F2AD120DF08BFC42F62030C2F209
:104300000100416840F2D420C2F20000026800209F
:10431000C4F21D009047BFF34F8F80BD0000000026
:1043200080B542F62030C2F20100806808B1FFE794
:104330000BE047F6F240C8F2020047F62851C8F2F7
:10434000020141F2B8120DF063FC42F62030C2F2D5
:104350000100816840F2D420C2F20000026844F2F9
:104360000000C4F21D009047BFF34F8F80BD0000D6
:1043700080B542F62030C2F20100C06808B1FFE704
:104380000BE047F60D50C8F2020047F62851C8F27C
:10439000020141F2C3120DF03BFC42F62030C2F2A2
:1043A0000100C16840F2D420C2F20000026848F265
:1043B0000000C4F21D009047BFF34F8F80BD000086
:1043C00080B584B0ADF80E008DF80D10BDF90E006B
:1043D000000A0290BDF80E0000F01F000190029844
:1043E000072801D8FFE70BE047F2A800C8F2020057
:1043F00046F63171C8F2020140F2DF520DF008FCBE
:1044000002994CF26800C4F20F0000EB81000090AA
:104410000098019B032199409DF80D209A400DF0D2
:104420000FFA04B080BD000080B584B0ADF80E0076
:104430008DF80D10BDF90E00000A0290BDF80E00B7
:1044400000F01F0001900298072801D8FFE70BE059
:1044500047F2A800C8F2020046F63171C8F2020124
:1044600040F2DF520DF0D4FB02994CF26800C4F226
:104470000F0000EB810000900098019B0321994000
:104480009DF80D209A400DF0F7F904B080BD0000B2
:1044900080B584B0ADF80E008DF80D10BDF90E009A
:1044A000000A0290BDF80E0000F01F000190029873
:1044B000072801D8FFE70BE047F2A800C8F2020086
:1044C00046F63171C8F2020140F2DF520DF0A0FB56
:1044D00002994CF26800C4F20F0000EB81000090DA
:1044E0000098019B032199409DF80D209A400DF002
:1044F000DFF904B080BD000080B584B0ADF80E00D7
:104500008DF80D10BDF90E00000A0290BDF80E00E6
:1045100000F01F0001900298072801D8FFE70BE088
:1045200047F2A800C8F2020046F63171C8F2020153
:1045300040F2DF520DF06CFB02994CF26800C4F2BD
:104540000F0000EB810000900098019B032199402F
:104550009DF80D209A400DF0C7F904B080BD000011
:1045600080B584B0ADF80E008DF80D10BDF90E00C9
:10457000000A0290BDF80E0000F01F0001900298A2
:10458000072801D8FFE70BE047F2A800C8F20200B5
:1045900046F63171C8F2020140F2DF520DF038FBED
:1045A00002994CF26800C4F20F0000EB8100009009
:1045B0000098019B032199409DF80D209A400DF031
:1045C000AFF904B080BD000080B584B0ADF80E0036
:1045D0008DF80D10BDF90E00000A0290BDF80E0016
:1045E00000F01F0001900298072801D8FFE70BE0B8
:1045F00047F2A800C8F2020046F63171C8F2020183
:1046000040F2DF520DF004FB02994CF26800C4F254
:104610000F0000EB810000900098019B032199405E
:104620009DF80D209A400DF097F904B080BD000070
:1046300080B584B0ADF80E008DF80D10BDF90E00F8
:10464000000A0290BDF80E0000F01F0001900298D1
:10465000072801D8FFE70BE047F2A800C8F20200E4
:1046600046F63171C8F2020140F2DF520DF0D0FA85
:1046700002994CF26800C4F20F0000EB8100009038
:104680000098019B032199409DF80D209A400DF060
:104690007FF904B080BD000080B584B0ADF80E0095
:1046A0008DF80D10BDF90E00000A0290BDF80E0045
:1046B00000F01F0001900298072801D8FFE70BE0E7
:1046C00047F2A800C8F2020046F63171C8F20201B2
:1046D00040F2DF520DF09CFA02994CF26800C4F2ED
:1046E0000F0000EB810000900098019B032199408E
:1046F0009DF80D209A400DF067F904B080BD0000D0
:1047000080B584B0ADF80E008DF80D10BDF90E0027
:10471000000A0290BDF80E0000F01F000190029800
:10472000072801D8FFE70BE047F2A800C8F2020013
:1047300046F63171C8F2020140F2DF520DF068FA1C
:1047400002994CF26800C4F20F0000EB8100009067
:104750000098019B032199409DF80D209A400DF08F
:104760004FF904B080BD000080B584B0ADF80E00F4
:104770008DF80D10BDF90E00000A0290BDF80E0074
:1047800000F01F0001900298072801D8FFE70BE016
:1047900047F2A800C8F2020046F63171C8F20201E1
:1047A00040F2DF520DF034FA02994CF26800C4F284
:1047B0000F0000EB810000900098019B03219940BD
:1047C0009DF80D209A400DF037F904B080BD00002F
:1047D00048F27001C4F20D014FF480500860704738
:1047E00048F2E001C4F20D014FF4805008607047B8
:1047F00048F22001C4F20D0100200860704700005B
:1048000048F2A001C4F20D014FF4805008607047D7
:1048100080B582B0ADF80600BDF906000021FFF7B3
:104820006BFE02B080BD000080B582B0ADF806001E
:10483000BDF906000021FFF7C7FE02B080BD0000F1
:1048400080B582B0ADF80600BDF906000021FFF783
:10485000EFFE02B080BD000080B582B0ADF806006A
:10486000BDF906000021FFF717FF02B080BD000070
:1048700080B582B0ADF80600BDF906000021FFF753
:104880003FFF02B080BD000080B582B0ADF80600E9
:10489000BDF906000321FFF793FD02B080BD0000C3
:1048A00080B582B0ADF80600BDF906000321FFF720
:1048B000BBFD02B080BD000080B582B0ADF806003F
:1048C000BDF906000321FFF7E3FD02B080BD000043
:1048D00080B582B0ADF80600BDF906000321FFF7F0
:1048E0000BFE02B080BD000080B582B0ADF80600BE
:1048F000BDF906000321FFF733FE02B080BD0000C2
:1049000080B582B0ADF80600BDF906000321FFF7BF
:104910005BFE02B080BD000080B582B0ADF806003D
:10492000BDF906000321FFF783FE02B080BD000041
:1049300080B582B0ADF80600BDF906000321FFF78F
:10494000ABFE02B080BD000080B582B0ADF80600BD
:10495000BDF906000321FFF707FF02B080BD00008C
:1049600080B500F059F94CF21401C4F20F01096846
:1049700001F4E052012101EB9221B0FBF1F080BD86
:1049800081B00090009840F6C071C0F2400161F320
:104990001F2000680099C1F34C32C1F304218A4002
:1049A0001040C84001B0704780B584B08DF80F004A
:1049B0009DF80F00014601911B2800F2A780019984
:1049C000DFE801F00E0E12161A1E22262B32373C9B
:1049D000415F666D72777C81888F969D464A4F5401
:1049E000FFF7BEFF029094E000F0F2FB029090E02F
:1049F00000F092F802908CE000F0EAF8029088E073
:104A000000F0AEF8029084E000F0DEFB029080E05F
:104A10000D2000F0A9F902907BE00D20C0F21000FB
:104A200000F0A2F9029074E0002000F055FC029022
:104A30006FE0012000F050FC02906AE0022000F0DC
:104A40004BFC029065E0032000F046FC029060E021
:104A500000F096FB02905CE000F092FB8008029070
:104A600057E000F08DFBC008029052E000F088FB98
:104A70004AF6AB21CAF6AA21A0FB011080080290D9
:104A800047E00D20C0F2200000F06EF9029040E0F7
:104A90000D20C0F2300000F067F9029039E00020EC
:104AA00000F0CAFB029034E0012000F0C5FB029048
:104AB0002FE0022000F0C0FB02902AE0032000F06B
:104AC000BBFB029025E00D20C0F2E00000F04CF9A5
:104AD00002901EE01420C0F2E00000F045F90290C0
:104AE00017E01520C0F2E00000F03EF9029010E05F
:104AF0000D20C0F2700000F037F9029009E00D209F
:104B0000C0F2A00000F030F9029002E00020029014
:104B1000FFE7029804B080BD80B5FFF721FF4CF29B
:104B20001401C4F20F01096801F44072012101EB84
:104B30001221B0FBF1F080BD81B00090009840F6EA
:104B4000C071C0F2400161F31F2000680099C1F3F9
:104B50004C32C1F304218A401040C84001B0704774
:104B600081B048F27020C4F20D000068C006002831
:104B700006D5FFE743F20060C0F26E10009006E039
:104B80004BF67070C2F2000000680090FFE70098DA
:104B900001B070470000000081B048F27020C4F2FC
:104BA0000D000068C006002806D5FFE743F200604C
:104BB000C0F26E10009006E04BF67070C2F200007A
:104BC00000680090FFE7009801B070470000000007
:104BD00080B582B04CF21C00C4F20F0000684006A1
:104BE000002804D5FFE7FFF7BBFF019003E0FFF7C4
:104BF00093FF0190FFE74CF21C00C4F20F00006825
:104C000000F03F00411C0198B0FBF1F001900198C9
:104C100002B080BD0000000080B584B04CF21400EA
:104C2000C4F20F000068800100283FD5FFE74CF276
:104C30001800C4F20F00006800F4405001460291D1
:104C400078B1FFE70298B0F5805F11D0FFE70298D6
:104C5000B0F5005F10D0FFE70298B0F5405F12D0CA
:104C600012E00D20C0F2100000F07EF803900EE07C
:104C7000FFF776FF03900AE00D20C0F2300000F04D
:104C800073F8039003E0FFE700200390FFE74CF286
:104C90001400C4F20F00006800F06051012000EB26
:104CA000D1610398B0FBF1F003903DE04CF21800A5
:104CB000C4F20F00006800F440200146019178B171
:104CC000FFE70198B0F5802F11D0FFE70198B0F50C
:104CD000002F11D0FFE70198B0F5402F11D01FE051
:104CE0000D20C0F2300000F03FF803901BE00220DE
:104CF00000F0A2FA039016E0002000F09DFA039065
:104D000011E00D2000F030F84CF21001C4F20F0158
:104D1000096801F007010131B0FBF1F0039002E0F6
:104D200000200390FFE7FFE7039804B080BD000078
:104D300080B584B0039002910398BDF80A106FF318
:104D40001F31405881B20020B0EB913F04D1FFE702
:104D5000FFF706FF019002E000200190FFE70198B5
:104D600004B080BD0000000080B58CB00A900A99A4
:104D700048F20000C4F20D0000F0BAFB18B9FFE7DA
:104D800000200B90F9E10A9948F20000C4F20D00EE
:104D90000590FFF7CDFF0146059809910A9900F0AB
:104DA00097FB18B1FFE709980B90E6E10A98049089
:104DB0000D283DD0FFE704980D21C0F21001884274
:104DC0007DD0FFE704980D21C0F22001884200F059
:104DD000C081FFE704980D21C0F23001884233D032
:104DE000FFE704980D21C0F27001884275D0FFE7FB
:104DF00004980D21C0F2A001884200F0FB80FFE77B
:104E000004980D21C0F2E001884200F07A81FFE7AA
:104E100004981421C0F2E001884200F08381FFE78A
:104E200004981521C0F2E001884200F08C819EE1D7
:104E3000099848F20001C4F20D01096801F07F01F0
:104E400048434008099095E19DED090AB8EE400BF2
:104E500048F25000C4F20D0090ED001AB8EE411B6C
:104E600020EE010B8DED060B48F26000C4F20D0040
:104E700090ED000AB8EE401B9DED060B80EE010B95
:104E80008DED060B48F23000C4F20D000068C0073B
:104E900028B1FFE7099816214843099005E00998D1
:104EA00000EB800080000990FFE79DED060BBCEE53
:104EB000C00B10EE101A0998084409905AE109989D
:104EC00048F21001C4F20D0109688A071421002A72
:104ED00048BF1621484309904CE148F27000C4F2E3
:104EE0000D00016801F07F0108919DED090AB8EEFF
:104EF000400B48F28001C4F20D0191ED001AB8EEAA
:104F0000411B20EE010B8DED060B48F29001C4F21F
:104F10000D0191ED000AB8EE401B9DED060B80EEF1
:104F2000010B8DED060B0999089A9DED060BBCEE61
:104F3000C00B10EE103A01FB02310991006800F439
:104F4000C0100146039150B1FFE70398B0F5002F60
:104F500009D0FFE70398B0F5801F08D008E0099852
:104F60008008099010E00998400809900CE00BE0D7
:104F700047F22320C8F2020047F2CA11C8F2020128
:104F800040F217420CF044FE48F27010C4F20D00DB
:104F9000006848F20001C0F2800108400146029119
:104FA000D0B1FFE70298B0F5004F11D0FFE70298AB
:104FB000B0F5000F10D0FFE7029848F20001C0F2F0
:104FC0008001884209D1FFE709988008099010E024
:104FD0000998400809900CE00BE047F22320C8F242
:104FE000020047F2CA11C8F2020140F22B420CF053
:104FF0000FFEBFE048F2A000C4F20D00016801F00E
:105000007F0108919DED090AB8EE400B48F2B0010E
:10501000C4F20D0191ED001AB8EE411B20EE010B18
:105020008DED060B48F2C001C4F20D0191ED000AAE
:10503000B8EE401B9DED060B80EE010B8DED060BCF
:105040000999089A9DED060BBCEEC00B10EE103AC4
:1050500001FB02310991006800F4C0100146019182
:1050600050B1FFE70198B0F5002F09D0FFE7019894
:10507000B0F5801F08D008E009988008099010E07A
:105080000998400809900CE00BE047F22320C8F291
:10509000020047F2CA11C8F202014FF48B620CF011
:1050A000B7FD48F27010C4F20D00006800F04040F7
:1050B00001460091B0F1004F15D0FFE70098B0F124
:1050C000404F08D0FFE7009868B1FFE70098B0F1C3
:1050D000804F04D008E009988008099010E00998F2
:1050E000400809900CE00BE047F22320C8F20200D0
:1050F00047F2CA11C8F2020140F26C420CF088FD7E
:1051000038E048F2E000C4F20D00006800F003004F
:105110000890089945F21050C8F2020050F821009A
:10512000099027E048F2E000C4F20D000068C0F3E7
:1051300081000890089945F21050C8F2020050F81A
:105140002100099016E047F64000C0F27D1009905A
:1051500010E0099848F22001C4F20D0109688A079D
:105160001421002A48BF16214843099002E000207C
:105170000990FFE709980B90FFE70B980CB080BDF2
:1051800080B582B04CF20C00C4F20F00006800F051
:1051900001000146009120B1FFE70098012807D0E7
:1051A0000CE00D20C0F21000FFF7DEFD019008E0DA
:1051B00043F20060C0F26E10019002E00020019006
:1051C000FFE7019802B080BD4FF400407047000037
:1051D00080B582B04CF21400C4F20F0000684006A3
:1051E000002814D5FFE74CF21400C4F20F00006849
:1051F0000006002805D5FFE7012000F06DF80190BA
:1052000004E0022000F018F80190FFE703E0FFF748
:1052100003FD0190FFE74CF21400C4F20F00006898
:1052200000F4E021012000EB11410198B0FBF1F006
:105230000190019802B080BD80B584B08DF80F0058
:105240000D20C0F23000FFF78FFD02909DF80F0097
:1052500001460191032834D80199DFE801F0020EDC
:105260001A2648F20010C4F20D00006800F03F0159
:105270000298B0FBF1F0029026E048F20010C4F270
:105280000D000068C0F305210298B0FBF1F0029018
:105290001AE048F20010C4F20D000068C0F30541A6
:1052A0000298B0FBF1F002900EE048F20010C4F258
:1052B0000D000068C0F305610298B0FBF1F00290A8
:1052C00002E000200290FFE7029800EBC0004000DF
:1052D0000290029804B080BD80B584B08DF80F00B4
:1052E0000D20C0F21000FFF73FFD02909DF80F0067
:1052F00001460191032834D80199DFE801F0020E3C
:105300001A2648F2F000C4F20D00006800F03F01D8
:105310000298B0FBF1F0029026E048F2F000C4F2EF
:105320000D000068C0F305210298B0FBF1F0029077
:105330001AE048F2F000C4F20D000068C0F3054125
:105340000298B0FBF1F002900EE048F2F000C4F2D7
:105350000D000068C0F305610298B0FBF1F0029007
:1053600002E000200290FFE7029800EBC00040003E
:105370000290029804B080BD81B0009048F2000114
:10538000C4F20D01086820F4E030009A127992030B
:1053900092B2104400F580300860086843F27F0242
:1053A0009043009A126802F07F02104400F500500A
:1053B0000860FFE748F20000C4F20D000068C00F6B
:1053C00008B9FFE7F6E748F20001C4F20D010868EA
:1053D00020F48030086001B0704700000000000039
:1053E00082B08DF807009DF80700C00708B9FFE7F5
:1053F0000AE047F2F110C8F2020047F2CA11C8F2FF
:105400000201C1220CF004FC48F25811C4F20D0153
:105410004FF080400860FFE748F27020C4F20D00B2
:105420000068C003002801D4FFE7F5E748F25411F3
:10543000C4F20D014FF480300860FFE748F25010CD
:10544000C4F20D0000680004002801D4FFE7F5E76E
:1054500048F25811C4F20D014FF48030086002B0D8
:10546000704700000000000048F27021C4F20D01F6
:10547000086840F00100086070470000000000006C
:1054800083B08DF80B008DF80A109DF80B00019089
:1054900048F20011C4F20D010868019AD300BF223E
:1054A0009A40904300900098019AD30080229A403D
:1054B0001043086000989DF80A2002F03F02019B0B
:1054C000DB009A401043086003B070470000000002
:1054D00082B0019000910198BDF802106FF31F3166
:1054E0004058C0F3004002B07047000000000000C8
:1054F00082B0019000910198BDF802106FF31F3146
:105500004058009901F01F01C84000F0010002B0AE
:10551000704700000000000080B584B00390029145
:105520000398800E0190039840F6C072C0F24002CA
:1055300062F31F2000680399C1F34C33C1F3042EBA
:1055400003FA0EFC20EA0C00029B03FA0EF303EAB6
:105550000C03184462F31F2108600198202801D829
:10556000FFE70BE046F6E960C8F2020046F631714B
:10557000C8F2020140F2BD520CF04AFB019820280B
:105580000DD0FFE7FFE74CF24800C4F20F000068BF
:105590000199C840C00708B1FFE7F4E7FFE704B08E
:1055A00080BD00000000000080B584B0039002912F
:1055B0000398800E0190039840F6C072C0F240023A
:1055C00062F31F2000680399C1F34C33C1F3042E2A
:1055D00003FA0EFC20EA0C00029B03FA0EF303EA26
:1055E0000C03184462F31F2108600198202801D899
:1055F000FFE70BE046F6E960C8F2020046F63171BB
:10560000C8F2020140F2BD520CF002FB01982028C2
:105610000DD0FFE7FFE74CF24800C4F20F0000682E
:105620000199C840C00708B1FFE7F4E7FFE704B0FD
:1056300080BD00000000000080B584B0039002919E
:105640000398800E0190039840F6C072C0F24002A9
:1056500062F31F2000680399C1F34C33C1F3042E99
:1056600003FA0EFC20EA0C00029B03FA0EF303EA95
:105670000C03184462F31F2108600198202801D808
:10568000FFE70BE046F6E960C8F2020046F631712A
:10569000C8F2020140F2BD520CF0BAFA019820287B
:1056A0000DD0FFE7FFE74CF24800C4F20F0000689E
:1056B0000199C840C00708B1FFE7F4E7FFE704B06D
:1056C00080BD00000000000080B584B0039002910E
:1056D0000398800E0190039840F6C072C0F2400219
:1056E00062F31F2000680399C1F34C33C1F3042E09
:1056F00003FA0EFC20EA0C00029B03FA0EF303EA05
:105700000C03184462F31F2108600198202801D877
:10571000FFE70BE046F6E960C8F2020046F6317199
:10572000C8F202014FF4B1620CF072FA019820281D
:105730000DD0FFE7FFE74CF24800C4F20F0000680D
:105740000199C840C00708B1FFE7F4E7FFE704B0DC
:1057500080BD00000000000080B584B0039002917D
:105760000398800E0190039840F6C072C0F2400288
:1057700062F31F2000680399C1F34C33C1F3042E78
:1057800003FA0EFC20EA0C00029B03FA0EF303EA74
:105790000C03184462F31F2108600198202801D8E7
:1057A000FFE70BE046F6E960C8F2020046F6317109
:1057B000C8F202014FF4B1620CF02AFA01982028D5
:1057C0000DD0FFE7FFE74CF24800C4F20F0000687D
:1057D0000199C840C00708B1FFE7F4E7FFE704B04C
:1057E00080BD00000000000080B584B003900291ED
:1057F0000398800E0190039840F6C072C0F24002F8
:1058000062F31F2000680399C1F34C33C1F3042EE7
:1058100003FA0EFC20EA0C00029B03FA0EF303EAE3
:105820000C03184462F31F2108600198202801D856
:10583000FFE70BE046F6E960C8F2020046F6317178
:10584000C8F202014FF4B1620CF0E2F9019820288D
:105850000DD0FFE7FFE74CF24800C4F20F000068EC
:105860000199C840C00708B1FFE7F4E7FFE704B0BB
:1058700080BD00000000000083B0029001918DF80F
:1058800003209DF80300C00750B1FFE70298BDF860
:1058900006106FF31F3101444FF48030486009E077
:1058A0000298BDF806106FF31F3101444FF48030A9
:1058B0008860FFE703B0704781B0009000984BF616
:1058C0006C71C2F20001086001B070470000000076
:1058D00081B0009000984BF67071C2F20001086030
:1058E00001B070470000000081B08DF803009DF802
:1058F000030038B9FFE748F27421C4F20D0110200B
:10590000086006E048F27821C4F20D01102008601A
:10591000FFE701B07047000084B003908DF80B10D2
:1059200000200090039800680190019820F4807096
:10593000039908609DF80B00C00728B1FFE70098A5
:1059400040F020000090FFE79DF80B008007002842
:1059500005D5FFE7009840F040000090FFE7019870
:1059600020F480700099084303990860FFE70398CA
:1059700000680099084201D0FFE7F8E70198039911
:10598000086004B07047000080B540F2D020C2F239
:105990000000026842F6E020C2F2010001684CF209
:1059A0000000C4F22B009047BFF34F8F80BD000072
:1059B00083B002908DF807108DF80620002000902B
:1059C0009DF80700C00728B1FFE7009840F4805019
:1059D0000090FFE79DF807008007002805D5FFE746
:1059E000009840F400600090FFE79DF80600C007B3
:1059F00030B1FFE7009A029988681043886005E09B
:105A0000009A0299886890438860FFE703B0704766
:105A100082B001900091BDF802200199086840EA27
:105A2000024008609DF80020019988681043886052
:105A30009DF801200199886C40EA8200886402B0D8
:105A4000704700000000000080B584B00390039808
:105A500008B1FFE70BE047F27F20C8F2020047F2EF
:105A60004B21C8F202014FF4E6720CF0D1F8039812
:105A70000021029110220192FDF717F80199029876
:105A8000039B4FF4A0721A80039BF0225A80039B61
:105A900040F602025A60039B02221A72039B4FF4E3
:105AA00020725A81039A9181039988730399012086
:105AB000C87304B080BD000082B001900020009047
:105AC000FFE7009888B9FFE7009946F2E430C8F292
:105AD000020050F821000199884201D1FFE704E05B
:105AE000FFE7009801300090EBE7009808B9FFE766
:105AF0000AE047F22920C8F2020047F24B21C8F21F
:105B00000201B5220CF084F8009802B07047000042
:105B100083B002908DF807109DF8070020B1FFE7D1
:105B20000298C06A009003E00298806A0090FFE744
:105B3000009803B07047000080B5FFF725FFBFF362
:105B40004F8F80BD0000000080B588B006900591A1
:105B5000059808B1FFE70BE047F27F20C8F202008A
:105B600047F24B21C8F2020140F21D120CF050F82E
:105B700005990888097A484303909DF80C0040076E
:105B800028B9FFE705984089400718B1FFE70420CE
:105B9000079095E00698FFF78FFF0190019946F274
:105BA000E830C8F2020030F91100FEF779FE0698DD
:105BB00000F0B6F8059988894968084340F4807078
:105BC00004900598C07BC00728B1FFE7049840F017
:105BD00080400490FFE70498069908600598807B50
:105BE00048B9FFE70598007A022804D1FFE70220B0
:105BF0008DF80B0003E001208DF80B00FFE70598FE
:105C0000007A042806D1FFE70699886C40F0080066
:105C10008864FFE70598807B012806D1FFE7069995
:105C2000886840F008008860FFE7059801889DF8C3
:105C30000B205143408840EA01400699486305988B
:105C400040890399401AC008069908630699886834
:105C500040F0010088609DF80C00400660B9FFE745
:105C600006994FF04040486006988068022161F331
:105C70000610069988601CE09DF80C00800660B94B
:105C8000FFE706994FF000404860069880680121C0
:105C900061F30610069988600AE006994FF080408B
:105CA00048600698806820F0700006998860FFE7D9
:105CB000FFE70698012100F007F800200790FFE7B2
:105CC000079808B080BD000083B002908DF80710DF
:105CD000002000909DF80700C00728B1FFE700985A
:105CE00040F480400090FFE79DF8070080070028FF
:105CF00005D5FFE7009840F400500090FFE7009AB8
:105D00000299886810438860FFE7029880680099CC
:105D1000084201D0FFE7F8E703B070470000000039
:105D200080B584B00390039800F05AF803990020DE
:105D300088600399886840F400408860FFE7039812
:105D400080680004002801D5FFE7F8E703980321E5
:105D50000191FFF7E1FD01990398FFF7B5FF039863
:105D600080690290029803998861039940F60000C7
:105D7000C4F200000860039900204860039988601D
:105D8000039A4FF45041916403990863039948635F
:105D900004B080BD0000000083B002908DF80710B1
:105DA00000929DF8070020B1FFE700980299C862B1
:105DB00003E0009802998862FFE703B07047000093
:105DC00080B582B00190019801221146FFF7F0FDE5
:105DD0000199886C40F00040886402B080BD0000EA
:105DE00080B582B001900199886C20F000408864F1
:105DF000019801210022FFF7DBFD02B080BD000009
:105E000080B586B00590049103920293049808B17E
:105E1000FFE70BE047F27020C8F2020047F24B2187
:105E2000C8F2020140F285220BF0F2FE0498002134
:105E300000913822FCF739FE039804990863029810
:105E4000049948630598FFF737FE01900498019A7A
:105E500042F6E021C2F2010141F8220040F2D021D5
:105E6000C2F2000143F60930C8F20000086001994F
:105E700046F2EA30C8F2020030F9110003F064F98A
:105E8000009806B080BD000081B00090009991F8A4
:105E90002A00013881F82A00009890F82A1000EBB7
:105EA0008100406901B0704781B00090009890F87F
:105EB0002A0001B07047000080B586B005900491BB
:105EC0000392049890F829008DF80300049890F844
:105ED00028008DF802009DF803009DF8021088420A
:105EE00004D1FFE740F6553001901CE005980068AA
:105EF0000290029820F4C01005990860049890F868
:105F0000291050F8210003990860049890F829009E
:105F100000F0D2F8049981F82900029805990860E8
:105F200000200190FFE7019806B080BD000000004E
:105F300081B08DF803008DF802109DF802009DF8E5
:105F40000310884208DBFFE79DF802009DF803106C
:105F5000401A8DF8010008E09DF802009DF803103A
:105F6000401A05308DF80100FFE79DF8010001B0EF
:105F7000704700000000000080B588B007900691CF
:105F8000079880690390039807998861039800F443
:105F9000C010B0F5C01F01D1FFE788E09DF80E00EA
:105FA00010F0180F00F08180FFE79DF80E00C0068A
:105FB000002804D5FFE701208DF8150003E000203C
:105FC0008DF81500FFE7069890F82B0002283CD1C9
:105FD000FFE7069890F828008DF81700069890F8CB
:105FE00029008DF816009DF816009DF81710FFF790
:105FF0009FFF032827D8FFE707989DF81510FFF7A4
:1060000087FD0490049806999DF8172041F8220016
:106010009DF8170000F050F8069981F828000699BD
:1060200091F82B00013881F82B000698006B48B1DD
:10603000FFE706990798D1F830C04B6B40F657320E
:10604000E047FFE700E0FFE7FFE7069890F82B0046
:10605000012829D8FFE70698FFF726FFA0B1FFE740
:10606000079802909DF8150001900698FFF70CFF25
:10607000019902460298FFF78FFE069991F82B00CE
:10608000013081F82B000EE007989DF8151081F083
:106090000101FFF73DFD049007989DF81510049A43
:1060A000FFF77AFEFFE7FFE700E0FFE7FFE708B052
:1060B00080BD00000000000081B08DF803009DF855
:1060C000030001308DF802009DF80200052804D37A
:1060D000FFE700208DF80200FFE79DF8020001B005
:1060E000704700000000000082B00190009100980D
:1060F000019991F82A2001EB82014861019991F8F8
:106100002A00013081F82A0002B070470000000028
:1061100080B586B004900391039808B1FFE70BE0C7
:1061200047F27020C8F2020047F24B21C8F2020188
:106130004FF42B720BF06CFD0398FFF7B5FE029045
:106140000298012804D8FFE740F65430059029E072
:106150000498806C40F0300020F44020049988645A
:106160000398FFF791FE049988620398FFF78CFE6D
:106170000499C8620399022081F82B000498012138
:106180000191FFF7A1FD0198039981F82C00049873
:106190004FF4C011FFF73CFC0498FFF711FE0020FC
:1061A0000590FFE7059806B080BD000000000000E4
:1061B00080B584B00390029101920398006800902A
:1061C000009820F4C0100399086002980199FFF725
:1061D0008BFF009803990860002004B080BD000088
:1061E00087B000200090ADF81A00ADF81400ADF8AB
:1061F0001600ADF81800ADF81200ADF81000ADF8BB
:106200000E00ADF80C00ADF80A00ADF80800ADF8CE
:106210000600ADF80E00FFE7BDF90E0045282CDCA6
:10622000FFE7BDF90E2040F24C31C2F20001002020
:106230008854BDF90E2040F29231C2F20001885418
:10624000BDF90E2040F27851C2F2000101EB42028A
:10625000A2F88C00BDF90E0001EB4002BB20A2F8B1
:106260001801BDF90E20502021F81200FFE7BDF8FB
:106270000E000130ADF80E00CEE74520ADF80E005F
:10628000FFE7BDF90E00002800F1CF86FFE7BDF95A
:106290001400002840F05786FFE7BDF916000028DB
:1062A00040F05186FFE7BDF91800002840F04B860A
:1062B000FFE7BDF90E00452840F08C82FFE7BDF9ED
:1062C0000E004CF26602C2F20002BC2110FB01205B
:1062D00090F85D0040F29401C2F20001B1F90010A3
:1062E0008842C0F2D680FFE75D20ADF80C00FFE7E2
:1062F000BDF90C00012849DBFFE7BDF90E004CF2A7
:106300006602C2F20002BC2110FB0120BDF90C1094
:10631000405C40F29401C2F20001B1F900108842E1
:106320002DDDFFE7BDF90E004CF26602C2F200025D
:10633000BC2110FB0121BDF90C00084410F8010C30
:1063400040F29401C2F20001B1F90010884216DA5D
:10635000FFE7BDF80C000138BDF90E2040F278517E
:10636000C2F2000101EB4201A1F88C00BDF90E2040
:1063700040F24C31C2F200010020885406E0FFE7F1
:10638000BDF80C000138ADF80C00B1E7BDF90C0008
:10639000A0B9FFE7BDF90E1040F27850C2F200003C
:1063A00000EB41010020A1F88C00BDF90E2040F265
:1063B0004C31C2F2000101208854FFE75D20ADF8A6
:1063C0000C00FFE7BDF90C00BB2848DCFFE7BDF976
:1063D0000E004CF26602C2F20002BC2110FB01204A
:1063E000BDF90C10405C40F29401C2F20001B1F919
:1063F000001088422CDAFFE7BDF90E004CF266026D
:10640000C2F20002BC2110FB0121BDF90C000844BE
:1064100010F8010C40F29401C2F20001B1F9001031
:10642000884215DDFFE7BDF80C00BDF90E2040F2F3
:106430007851C2F2000101EB4201A1F81801BDF947
:106440000E2040F29231C2F200010020885406E092
:10645000FFE7BDF80C000130ADF80C00B2E7BDF964
:106460000C00BC2814D1FFE7BDF90E1040F27850A3
:10647000C2F2000000EB4101BB20A1F81801BDF9F8
:106480000E2040F29231C2F2000101208854FFE751
:106490009FE15D20ADF80C00FFE7BDF90C00BB28C3
:1064A00041DCFFE7BDF90E004CF26602C2F20002C9
:1064B000BC2110FB0120BDF90C10405C40F294019E
:1064C000C2F20001B1F90010884225DDFFE7BDF9F5
:1064D0000E004CF26602C2F20002BC2110FB012148
:1064E000BDF90C00084410F8010C40F29401C2F20E
:1064F0000001B1F9001088420EDAFFE7BDF80C0088
:106500000138BDF90E2040F27851C2F2000101EBD2
:106510004201A1F88C0006E0FFE7BDF80C00013055
:10652000ADF80C00B9E7BDF90C00BC286DD0FFE751
:10653000BDF90E1040F27850C2F2000000EB4100AD
:10654000B0F88C000130ADF80A00FFE7BDF90A0091
:10655000BB2840DCFFE7BDF90E004CF26602C2F238
:106560000002BC2110FB0120BDF90A10405C40F282
:106570009401C2F20001B1F90010884224DAFFE769
:10658000BDF90E004CF26602C2F20002BC2110FB03
:106590000121BDF90A00084410F8010C40F29401F1
:1065A000C2F20001B1F9001088420DDDFFE7BDF82D
:1065B0000A00BDF90E2040F27851C2F2000101EB51
:1065C0004201A1F8180106E0FFE7BDF80A0001301A
:1065D000ADF80A00BAE7BDF90A00BC2814D1FFE7FC
:1065E000BDF90E1040F27850C2F2000000EB4101FC
:1065F000BB20A1F81801BDF90E2040F29231C2F281
:10660000000101208854FFE7FFE75D20ADF8060098
:10661000FFE7BDF90600012840DBFFE7BDF90E00EA
:106620004CF26602C2F20002BC2110FB0121BDF94E
:106630000600084410F8010C40F29401C2F2000177
:10664000B1F90010884222DDFFE7BDF90E004CF2DF
:106650006602C2F20002BC2110FB0120BDF9061047
:10666000405C40F29401C2F20001B1F9001088428E
:106670000DDAFFE7BDF80600BDF90E2040F27851B3
:10668000C2F2000101EB4201A1F8180106E0FFE7A8
:10669000BDF806000138ADF80600BAE7BDF90600FE
:1066A00000286BD0FFE7BDF90E1040F27850C2F21F
:1066B000000000EB4100B0F818010138ADF80A0005
:1066C000FFE7BDF90A00012840DBFFE7BDF90E0036
:1066D0004CF26602C2F20002BC2110FB0120BDF99F
:1066E0000A10405C40F29401C2F20001B1F90010BE
:1066F000884224DDFFE7BDF90E004CF26602C2F2CB
:106700000002BC2110FB0121BDF90A00084410F869
:10671000010C40F29401C2F20001B1F9001088426C
:106720000DDAFFE7BDF80A00BDF90E2040F27851FE
:10673000C2F2000101EB4201A1F88C0006E0FFE784
:10674000BDF80A000138ADF80A00BAE7BDF90A0041
:1067500098B9FFE7BDF90E1040F27850C2F2000080
:1067600000EB41010120A1F88C00BDF90E2040F2A0
:106770004C31C2F200018854FFE7FFE7BDF90E106B
:1067800040F27850C2F2000000EB4100B0F98C00FA
:1067900048B9FFE7BDF90E2040F24C31C2F20001CA
:1067A00001208854FFE7BDF90E1040F27850C2F284
:1067B000000000EB4100B0F9180148B9FFE7BDF94E
:1067C0000E2040F29231C2F2000101208854FFE70E
:1067D000FFE729E3BDF90E0040F24C31C2F200019F
:1067E000084490F90100002840F09D80FFE7BDF9C2
:1067F0000E1040F27850C2F2000000EB4100B0F8F9
:106800008E00ADF81A00BDF81A000A30ADF810007D
:10681000BDF81A000A38ADF81200BDF91000BC2806
:1068200004DBFFE7BB20ADF81000FFE7BDF9120065
:10683000B0F1FF3F04DCFFE70020ADF81200FFE7F6
:10684000BDF81000ADF80C00FFE7BDF90C00012801
:106850004FDBFFE7BDF90E004CF26602C2F2000208
:10686000BC2110FB0120BDF90C10405C40F29401EA
:10687000C2F20001B1F9001088422DDDFFE7BDF939
:106880000E004CF26602C2F20002BC2110FB012194
:10689000BDF90C00084410F8010C40F29401C2F25A
:1068A0000001B1F90010884216DAFFE7BDF80C00CC
:1068B0000138BDF90E2040F27851C2F2000101EB1F
:1068C0004201A1F88C00BDF90E2040F24C31C2F219
:1068D0000001002088540CE0BDF90C00032801DC05
:1068E000FFE706E0FFE7BDF80C000138ADF80C004B
:1068F000ABE7BDF90C00032814D1FFE7BDF90E107A
:1069000040F27850C2F2000000EB41010020A1F8F3
:106910008C00BDF90E2040F24C31C2F20001012082
:106920008854FFE7F2E0BDF90E0040F29231C2F266
:106930000001084490F90100002874D1FFE7BDF977
:106940000E1040F27850C2F2000000EB4100B0F8A7
:106950001A01ADF80C00FFE7BDF90C00012849DB76
:10696000FFE7BDF90E004CF26602C2F20002BC2144
:1069700010FB0120BDF90C10405C40F29401C2F202
:106980000001B1F9001088422DDDFFE7BDF90E00CE
:106990004CF26602C2F20002BC2110FB0121BDF9DB
:1069A0000C00084410F8010C40F29401C2F20001FE
:1069B000B1F90010884216DAFFE7BDF80C00013883
:1069C000BDF90E2040F27851C2F2000101EB420104
:1069D000A1F88C00BDF90E2040F24C31C2F200014A
:1069E0000020885406E0FFE7BDF80C000138ADF840
:1069F0000C00B1E7BDF90C00A0B9FFE7BDF90E101E
:106A000040F27850C2F2000000EB41010020A1F8F2
:106A10008C00BDF90E2040F24C31C2F20001012081
:106A20008854FFE771E05D20ADF80C00FFE7BDF989
:106A30000C0001284FDBFFE7BDF90E004CF26602A7
:106A4000C2F20002BC2110FB0120BDF90C10405C19
:106A500040F29401C2F20001B1F9001088422DDD2C
:106A6000FFE7BDF90E004CF26602C2F20002BC2143
:106A700010FB0121BDF90C00084410F8010C40F294
:106A80009401C2F20001B1F90010884216DAFFE762
:106A9000BDF80C000138BDF90E2040F27851C2F269
:106AA000000101EB4201A1F88C00BDF90E2040F27B
:106AB0004C31C2F20001002088540CE0BDF90C00FA
:106AC000032801DCFFE706E0FFE7BDF80C00013812
:106AD000ADF80C00ABE7BDF90C00032814D1FFE7BB
:106AE000BDF90E1040F27850C2F2000000EB4101F7
:106AF0000020A1F88C00BDF90E2040F24C31C2F20A
:106B0000000101208854FFE7FFE7FFE7BDF90E0011
:106B100040F29231C2F20001084490F901000028CD
:106B200040F09580FFE7BDF90E1040F27850C2F2B8
:106B3000000000EB4100B0F81A01ADF81A00BDF8F2
:106B40001A000A30ADF81000BDF81A000A38ADF886
:106B50001200BDF91000BB2804DBFFE7BB20ADF835
:106B60001000FFE7BDF91200012804DCFFE7012057
:106B7000ADF81200FFE7BDF81200ADF80C00FFE71A
:106B8000BDF90C00BA2848DCFFE7BDF90E004CF255
:106B90006602C2F20002BC2110FB0121BDF90C000B
:106BA000084410F8010C40F29401C2F20001B1F95E
:106BB000001088422ADDFFE7BDF90E004CF26602A4
:106BC000C2F20002BC2110FB0120BDF90C10405C98
:106BD00040F29401C2F20001B1F90010884215DAC6
:106BE000FFE7BDF80C00BDF90E2040F27851C2F26B
:106BF000000101EB4201A1F81801BDF90E2040F29D
:106C00009231C2F200010020885406E0FFE7BDF88F
:106C10000C000130ADF80C00B2E7BDF90C00BB2848
:106C200014D1FFE7BDF90E1040F27850C2F2000017
:106C300000EB4101BB20A1F81801BDF90E2040F284
:106C40009231C2F2000101208854FFE7EBE0BDF968
:106C50000E0040F24C31C2F20001084490F90100EC
:106C6000002874D1FFE7BDF90E1040F27850C2F24F
:106C7000000000EB4100B0F88E00ADF80C00FFE71B
:106C8000BDF90C00BB2848DCFFE7BDF90E004CF253
:106C90006602C2F20002BC2110FB0120BDF90C10FB
:106CA000405C40F29401C2F20001B1F90010884248
:106CB0002CDAFFE7BDF90E004CF26602C2F20002C8
:106CC000BC2110FB0121BDF90C00084410F8010C97
:106CD00040F29401C2F20001B1F90010884215DDC2
:106CE000FFE7BDF80C00BDF90E2040F27851C2F26A
:106CF000000101EB4201A1F81801BDF90E2040F29C
:106D00009231C2F200010020885406E0FFE7BDF88E
:106D10000C000130ADF80C00B2E7BDF90C00BC2846
:106D200014D1FFE7BDF90E1040F27850C2F2000016
:106D300000EB4101BB20A1F81801BDF90E2040F283
:106D40009231C2F2000101208854FFE76AE05D2021
:106D5000ADF80C00FFE7BDF90C00BB2848DCFFE7ED
:106D6000BDF90E004CF26602C2F20002BC2110FB1B
:106D70000121BDF90C00084410F8010C40F2940107
:106D8000C2F20001B1F9001088422ADDFFE7BDF927
:106D90000E004CF26602C2F20002BC2110FB012080
:106DA000BDF90C10405C40F29401C2F20001B1F94F
:106DB0000010884215DAFFE7BDF80C00BDF90E207F
:106DC00040F27851C2F2000101EB4201A1F8180132
:106DD000BDF90E2040F29231C2F200010020885429
:106DE00006E0FFE7BDF80C000130ADF80C00B2E79B
:106DF000BDF90C00BC2814D1FFE7BDF90E1040F21C
:106E00007850C2F2000000EB4101BB20A1F818014C
:106E1000BDF90E2040F29231C2F2000101208854E7
:106E2000FFE7FFE7FFE7FFE7BDF90E1040F27850FC
:106E3000C2F2000000EB4101B1F98C00B1F9181168
:106E4000884216DCFFE7BDF90E1040F27850C2F21E
:106E5000000000EB4100B0F918010A2809DCFFE747
:106E6000BDF9140028B9FFE7BDF80E00ADF8140015
:106E700068E0BDF90E1040F27850C2F2000000EB5D
:106E80004100B0F98C10B0F91801884216DBFFE719
:106E9000BDF90E1040F27850C2F2000000EB410044
:106EA000B0F98C00962809DBFFE7BDF9160028B978
:106EB000FFE7BDF80E00ADF8160042E0BDF90E1078
:106EC00040F24C30C2F200004056012823D1FFE7C7
:106ED000BDF90E1040F29230C2F200004056012877
:106EE00019D1FFE7BDF90E004CF26602C2F20002B2
:106EF000BC2110FB0120407E68B9FFE7BDF90E0000
:106F00004CF26602C2F20002BC2110FB012090F894
:106F1000870080B1FFE7BDF90E1040F27850C2F251
:106F2000000000EB4101B1F98C00B1F918110639EC
:106F3000884205DDFFE7BDF80E00ADF81800FFE759
:106F4000FFE7FFE769E0BDF81400ADF80E00FFE7CA
:106F5000BDF90E00002819D4FFE7BDF90E1040F26C
:106F60007850C2F2000000EB41020021A2F88C1020
:106F7000BDF90E1000EB4101BB20A1F81801FFE79D
:106F8000BDF80E000138ADF80E00E1E7BDF81600BF
:106F9000ADF80E00FFE7BDF90E00002819D4FFE799
:106FA000BDF90E1040F27850C2F2000000EB410231
:106FB0000021A2F88C10BDF90E1000EB4101BB209E
:106FC000A1F81801FFE7BDF80E000138ADF80E007A
:106FD000E1E7BDF81800ADF80E00FFE7BDF90E00BF
:106FE000002819D4FFE7BDF90E1040F27850C2F224
:106FF000000000EB41020021A2F88C10BDF90E1038
:1070000000EB4101BB20A1F81801FFE7BDF80E001D
:107010000138ADF80E00E1E7FFE7FFE7BDF80E002D
:107020000138ADF80E00FFF72CB907B0704700002B
:1070300080B5ADF6680DCDF86408ADF86218ADF80E
:107040006028BDF86208BDF860184843C11700EB1E
:1070500091708010159000201490DDF86418139141
:107060001790FFE71798FF280FDCFFE7179A0DF539
:107070008C61002041F82200179A18A941F82200DB
:10708000FFE7179801301790ECE700201290179057
:10709000FFE71798BDF8601888422DDAFFE7002057
:1070A0001690FFE71698BDF8621888421FDAFFE7CE
:1070B00013981799BDF86228169B01FB0231425CB8
:1070C0000DF58C6151F82200013041F8220013982F
:1070D0001799BDF86228169B01FB0231415C12989A
:1070E00008441290FFE7169802301690DAE7FFE79F
:1070F000179802301790CCE700201790FFE71798F9
:10710000FF2819DCFFE717990DF58C6000EB810073
:1071100090ED000AB8EEC00A9DED151AB8EEC11A3E
:1071200080EE010A18A800EB810080ED000AFFE75D
:10713000179801301790E2E70020089009900A9014
:107140000B900C900D900E900F9010901190169047
:10715000FFE71698FF2800F3AE80FFE7169918A8FE
:1071600000EB810191ED001A9DED110A30EE010A4C
:107170008DED110A169900EB810090ED000AB5EE35
:10718000400AF1EE10FA01D1FFE790E0169900EE07
:10719000101AB8EEC01A18A800EB810090ED002A72
:1071A0009DED0F0AA1EE020A8DED0F0A9DED111A59
:1071B000B7EE000A30EE410A8DED100A12981599CB
:1071C000B0FBF1F000EE100AB8EE400A9DED0F1A88
:1071D00030EE410A8DED0E0A9DED0F0A9DED111A5C
:1071E00080EE010A8DED0D0A9DED0E0A9DED101A3F
:1071F00080EE010A8DED0C0A9DED0F0A9DED0E1A31
:1072000030EE010A8DED0B0A9DED110AB7EEC00AB2
:107210008DED040B9DED0D0A9DED0B1A30EE410A2C
:10722000B7EEC00AB0EE001B8DED001B1FF058F941
:107230009DED001B8DED020B9DED100AB7EEC00A0F
:107240008DED060B9DED0C0A9DED0B2A30EE420AEA
:10725000B7EEC00A1FF044F99DED022B9DED041B13
:10726000B0EE403B9DED060B20EE030BA1EE020BB2
:10727000B7EEC00B8DED0A0A9DED0A0A9DED091AC5
:10728000B4EE410AF1EE10FA05DDFFE70A98099025
:1072900016981490FFE79DED0A0A9DED091AB4EEC9
:1072A000410AF1EE10FA01DAFFE704E0FFE7169871
:1072B000013016904DE71498B0F5807F03DBFFE7AF
:1072C000FF201490FFE71498B0F1FF3F03DCFFE7C5
:1072D00000201490FFE714980DF6680D80BD0000A3
:1072E00010B582B04CF24800C2F200000068BC2128
:1072F0004622FFF79DFE40F29401C2F20001088091
:1073000000200190FFE7019845283DDCFFE70020C1
:107310000090FFE70098BB2831DCFFE74CF2480003
:10732000C2F200000168019ABC2302FB0311DDF8E0
:1073300000C011F80CE040F29401C2F20001B1F972
:1073400000400021A645C8BFFF214FF2CE3EC2F249
:10735000000E02FB03E202F80C100068019901FB29
:107360000300009A805C4CF2660CC2F2000C01FB38
:1073700003C18854FFE7009801300090CAE7FFE797
:10738000019801300190BEE702B010BD000000007E
:1073900080B582B0022015F0D7F80020019014F0DB
:1073A000BFFE019946F67732C8F20202084615F090
:1073B00027FCFFE717F04CF978B1FFE746F6853276
:1073C000C8F202020020102115F01AFC46F63030F7
:1073D000C8F2020019F038FD06E046F64E30C8F259
:1073E000020019F031FD04E04FF47A701BF0A4FBA9
:1073F000E0E746F66932C8F202020020102115F0DB
:10740000FFFB14F0F9FB02B080BD0000000000009B
:1074100080B586B0059004910598042821D1FFE736
:10742000049840681EF0CCFFB7EEC00B8DED030A48
:10743000049880681EF0C4FFB7EEC00B8DED020A01
